:10000000BEC00000D9C00000D7C00000D5C00000AD
:10001000D3C00000D1C00000CFC00000CDC00000A0
:10002000CBC00000C9C0000085C10000A4C1000011
:10003000C3C00000C1C00000BFC00000BDC00000C0
:10004000BBC00000B9C00000B7C00000B5C00000D0
:10005000B3C00000B1C00000AFC00000ADC00000E0
:10006000ABC00000A9C00000A7C00000A5C00000F0
:10007000A3C00000A1C000009FC000009DC0000000
:100080009BC0000099C0000097C0000095C0000010
:1000900093C0000091C0000000010000CF001200DA
:1000A000020000E1002200210000F300090022000C
:1000B0000003012F0003000032010401030904368C
:1000C0000112020309044A0132000001C1060012B4
:1000D00001000200000020010002000001010203F3
:1000E000010902220001010080320904000001031D
:1000F000000000092111010001222F0007058303E0
:1001000008000A05010905A1010901A1000930093A
:1001100031150026FF00750895028102C0050919F6
:1001200001290215002501750195028102950681BC
:1001300003C004030904120350002E0055005000B0
:1001400049004E004F0056000000320350002E00C0
:100150005500500049004E004F005600200041005D
:100160005600520020005500530042002000470076
:1001700041004D00450050004100440000001124A2
:100180001FBECFEFD0E2DEBFCDBF11E0A0E0B1E0F7
:10019000EEEFF5E000E00BBF02C007900D92A43037
:1001A000B107D9F711E0A4E0B1E001C01D92A7307A
:1001B000B107E1F702D021C223CFFF920F931F9323
:1001C000CF93DF9380E880936100109261008AB141
:1001D000806F8AB95E9A84E294EFFC013197F1F75F
:1001E0005E985F9AFC013197F1F75F985C9A0197EE
:1001F000F1F75C985D9A84EE85B980E38EB946D0BC
:100200005CD08823E9F380E197E229E130E0F9014D
:100210003197F1F70197D9F7C1E0D0E01E9902C0FC
:10022000FF2407C0649903C0FF24FA9402C030E899
:10023000F32E1F9902C000E005C0659902C00FEFC0
:1002400001C000E81D9904C0629902C013E00FC00C
:1002500083B1629902C012E00AC090E025E0969551
:1002600087952A95E1F78C279D27182F11708F2DE0
:10027000602F412F58D080E8F81621F4003811F48F
:10028000112311F05F9ACACF5F98C8CF81E880939D
:10029000D70080EA8093D8008EE089BD09B400FEC3
:1002A000FDCF80E98093D8001092E0001092050104
:1002B0008CE08093E2007894089580910501089580
:1002C00080910501882369F12FB7F89483E080932A
:1002D000E9009091E4009E5C33E08091E80085FDA8
:1002E0000EC02FBF809105018823D9F08091E400D2
:1002F0008917B9F02FB7F8943093E900EECF8091C9
:1003000000018093F100809101018093F1008091C0
:1003100004018093F1008AE38093E8002FBF80E01E
:1003200008958FEF08958093000160930101409339
:100330000401C6CF1F920F920FB60F9211248F9314
:100340008091E1001092E10083FF0FC01092E9005C
:1003500081E08093EB001092EC0082E28093ED004C
:1003600088E08093F000109205018F910F900FBEEE
:100370000F901F9018951F920F920FB60F920BB609
:100380000F9211240F931F932F933F934F935F93DB
:100390006F937F938F939F93AF93BF93EF93FF934D
:1003A0001092E9008091E80083FF0FC14091F100B5
:1003B0003091F1008091F100682F70E02091F10000
:1003C000922F80E0682B792B8091F100A82FB0E06C
:1003D0002091F100922F80E0A82BB92B1091F10011
:1003E0000091F10082EF8093E800363009F05AC0A6
:1003F0002FE930E0A90145505040F9013797859128
:1004000094918617970701F5FA01859194918A17BF
:100410009B07D1F49A012E5F3F4FF90165917491CA
:100420002E5F3F4FF9014491212F30E0902F80E063
:10043000282B392B2F3F310519F010F02FEF30E02A
:10044000241758F4422F09C0295F3F4F495F5F4F7F
:10045000F0E0203D3F0789F6B8C05EEF8091E800EC
:10046000282F30E0C90185709070892BB9F322FDE7
:10047000AFC0342F413208F030E2232FCB0106C049
:10048000FC010196E491E093F10021502223C1F791
:10049000630F711D431B5093E8004423F9F630327B
:1004A000E9F296C0353061F48EEF8093E8008091D8
:1004B000E80080FFFCCF862F80688093E30088C02F
:1004C000393051F5442309F03DC0609305018EEFAA
:1004D0008093E80089EC90E021E02093E900FC01A2
:1004E0000196E491E093EB00EE2369F0AC014F5FDD
:1004F0005F4FFC0184918093EC00CA010196FA01E0
:1005000034913093ED002F5F253039F78EE18093E1
:10051000EA001092EA005CC0383049F4403891F4A7
:100520008091E80080FFFCCF8091050132C0332329
:1005300049F48091E80080FFFCCF1092F100109206
:10054000F1003FC0AB2B09F040C0413A29F53130F2
:1005500079F48091E80080FFFCCF809100018093C6
:10056000F100809101018093F1008091040111C09C
:10057000323039F48091E80080FFFCCF8091060191
:1005800008C0333011F58091E80080FFFCCF8091E6
:1005900002018093F10015C04132B9F4393041F4C1
:1005A0008091E80082FFFCCF8BEF8093E80009C0C8
:1005B0003A3019F47093060104C03B3031F4609373
:1005C00002018EEF8093E80003C081E28093EB008C
:1005D000FF91EF91BF91AF919F918F917F916F911B
:1005E0005F914F913F912F911F910F910F900BBEF3
:0E05F0000F900FBE0F901F901895F894FFCF3C
:0405FE0080800100F8
:00000001FF
